:020000040800F2
:100000007851002439030008814800080946000897
:1000100079480008410500087152000800000000FE
:10002000000000000000000000000000914D0008EA
:10003000C10500080000000001490008D94D000872
:100040005303000853030008530300085303000838
:100050005303000853030008530300085303000828
:100060005303000853030008530300085303000818
:100070005303000853030008530300085303000808
:1000800053030008530300085303000853030008F8
:1000900053030008530300085303000853030008E8
:1000A00053030008530300085303000853030008D8
:1000B00053030008530300085303000853030008C8
:1000C00053030008530300085303000853030008B8
:1000D00053030008530300085303000853030008A8
:1000E00053030008530300080000000053030008F6
:1000F0005303000853030008530300085303000888
:100100005303000853030008530300085303000877
:100110005303000853030008530300085303000867
:100120005303000853030008530300085303000857
:100130005303000853030008530300085303000847
:1001400000000000000000000000000000000000AF
:100150005303000853030008530300085303000827
:100160005303000853030008530300085303000817
:100170005303000853030008530300080000000065
:1001800053030008530300085303000853030008F7
:1001900053030008530300085303000853030008E7
:1001A00053030008530300085303000853030008D7
:1001B00053030008530300085303000853030008C7
:1001C00053030008530300085303000853030008B7
:1001D00053030008530300085303000853030008A7
:1001E0005303000853030008530300085303000897
:1001F0005303000853030008530300085303000887
:100200005303000853030008530300085303000876
:100210005303000853030008C150000853030008AB
:1002200053030008530300085303000800000000B4
:1002300053030008530300080000000053030008A4
:100240005303000853030008530300085303000836
:100250005303000853030008530300085303000826
:100260005303000853030008530300085303000816
:100270005303000853030008530300080000000064
:100280005303000853030008530300080000000054
:10029000000000005303000800F002F800F03CF8F2
:1002A0000AA090E8000C82448344AAF10107DA45D1
:1002B00001D100F031F8AFF2090EBAE80F0013F0E7
:1002C000010F18BFFB1A43F0010318471086000006
:1002D00030860000103A24BF78C878C1FAD8520797
:1002E00024BF30C830C144BF04680C6070470000B0
:1002F0000023002400250026103A28BF78C1FBD82F
:10030000520728BF30C148BF0B6070471FB508F0C7
:100310001BF91FBD10B510BD00F0D7F81146FFF74F
:10032000F5FF05F095FA00F0F5F803B4FFF7F2FFDA
:1003300003BC00F0FDF80000094880470948004769
:10034000FEE7FEE7FEE7FEE7FEE7FEE7FEE7FEE785
:10035000FEE7FEE704480549054A064B70470000E2
:10036000614F000899020008784B0024785100245E
:10037000784D0024784D0024032A40F2308010F09C
:10038000030C00F0158011F8013BBCF1020F624430
:1003900098BF11F801CB00F8013B38BF11F8013BC1
:1003A000A2F1040298BF00F801CB38BF00F8013B6E
:1003B00011F0030300F02580083AC0F0088051F8DE
:1003C000043B083A51F804CBA0E80810F5E7121DE9
:1003D0005CBF51F8043B40F8043BAFF30080D20708
:1003E00024BF11F8013B11F801CB48BF11F8012BD4
:1003F00024BF00F8013B00F801CB48BF00F8012BF7
:10040000704710B5203AC0F00B80B1E81850A0E852
:100410001850B1E81850A0E81850203ABFF4F5AFD2
:100420005FEA027C24BFB1E81850A0E8185044BF2E
:1004300018C918C0BDE810405FEA827C24BF51F89B
:10044000043B40F8043B08BF7047D20728BF31F88F
:10045000023B48BF11F8012B28BF20F8023B48BFE0
:1004600000F8012B704702F0FF0343EA032242EA3F
:10047000024200F002B84FF0000200B51346944665
:100480009646203922BFA0E80C50A0E80C50B1F1EC
:100490002001BFF4F7AF090728BFA0E80C5048BF00
:1004A0000CC05DF804EB890028BF40F8042B08BF9E
:1004B000704748BF20F8022B11F0804F18BF00F89A
:1004C000012B7047704770477047754600F02CF855
:1004D000AE4605006946534620F00700854618B031
:1004E00020B5FFF737FFBDE820404FF000064FF082
:1004F00000074FF000084FF0000BAC46ACE8C00915
:10050000ACE8C009ACE8C009ACE8C00921F00701BB
:100510008D46704710B50446AFF300802046BDE815
:100520001040FFF702BF0000004870471800002489
:1005300001491820ABBEFEE726000200704700000C
:10054000FFE7FEE70000000080B584B00390029151
:100550000398029900F040F840F27800C2F200409F
:10056000817901910021052205F0B2F80146019838
:10057000884217D1FFE740F27800C2F2004041788C
:1005800040F29D02C2F200421170817840F29E0258
:10059000C2F200421170C07840F29C01C2F20041E8
:1005A0000870FFE704B080BD80B582B00190009173
:1005B00001984FF4002100F02FF802B080BD000038
:1005C000704700000000000081B0EFF3108072B6A9
:1005D0000090FFE7FEE7000080B58EB00C900B9115
:1005E0000C9B40F2B400C2F20040402101AA00F08E
:1005F0006FFB20B1FFE700208DF8370007E001987E
:100600000B990880BDF812008DF83700FFE79DF8C0
:1006100037000EB080BD000080B58CB00A90099103
:10062000012000900020019002900999039104900C
:1006300005900690079008900A9A40F2B400C2F222
:100640000040694600F050FA20B1FFE701208DF824
:100650002F0003E000208DF82F00FFE79DF82F000A
:100660000CB080BD0000000084B002900298406B86
:10067000009002980068D0F884004FF6FC7188431F
:10068000009940EA810002990968C1F88400029843
:100690000068D0F8840020F47F00029A1168926B01
:1006A00040EA0240C1F884000298816B0098084437
:1006B000009002980068D0F888006FF38F000099CE
:1006C00040EA810002990968C1F888000298006830
:1006D000D0F8880020F4FE00029A1168D26B40EA3C
:1006E0000240C1F888000298C16B009800EB4100FD
:1006F000009002980068D0F8A0006FF38F00009976
:1007000040EA810002990968C1F8A00002980068D7
:10071000D0F8A00020F4FE00029A1168126C40EAA2
:100720000240C1F8A0000299086C496C009A00FBD5
:100730000120009002980068D0F8B0006FF38F009D
:10074000009940EA810002990968C1F8B000029856
:100750000068D0F8B00020F4FE00029A1168926C94
:1007600040EA0240C1F8B0000299886CC96C009A56
:1007700000FB0120009002980068D0F8AC006FF3F5
:100780008F00009940EA810002990968C1F8AC0025
:100790000299086D496D009A00FB012000900298B3
:1007A0000068D0F8F0006FF38F00009940EA8100F4
:1007B00002990968C1F8F00002980068D0F8F000CA
:1007C00020F47C10029A1168926D40EA0240C1F850
:1007D000F0000298816D009800EB410000900298B3
:1007E0000068D0F8C0006FF38F00009940EA8100E4
:1007F00002990968C1F8C00002980068D0F8C000EA
:1008000020F47C10029A1168D26D40EA0240C1F8CF
:10081000C00002980068D0F8C00020F07C50029A16
:100820001168126E40EA0260C1F8C00002994A6B7A
:100830004AF60040C4F2000000EB8200C86602994C
:100840008A6BC86E00EB820008670299CA6B086F5A
:1008500000EBC200486702990A6C4B6C486F5A4320
:1008600000EB8200886702998A6CCB6C886F5A43D0
:1008700000EB8200C86702990A6D4B6DC86F5A433E
:1008800000EB8200C1F8800002998A6DD1F88000E7
:1008900000EBC200C1F884000299CA6D8B6ED1F8DA
:1008A00084005A4300EB8200C1F8880002990A6E66
:1008B0008B6ED1F888005A4300EB8200C1F890009B
:1008C0000298D0F890004DF2FD31C4F20001884248
:1008D0000FD3FFE70299D1F89C0040F02000C1F847
:1008E0009C000299032081F8980001208DF80F00E8
:1008F00017E00298C06E0190FFE701980299D1F8C5
:100900009010884208D2FFE7019900200860FFE7B5
:10091000019804300190F0E7FFE700208DF80F0008
:10092000FFE79DF80F0004B07047000000000000D2
:1009300088B007900691059204930698406848B9DC
:10094000FFE70698016882680069104340EA814029
:10095000039009E006980168826800691043084323
:1009600040F080400390FFE70698D0F820C0C168AF
:1009700042698369C06940EA0C6018431043084328
:1009800002900798826ED0F884000499514300EBDE
:10099000810001900398019908600198043001904A
:1009A000029801990860019804300190002000909D
:1009B000FFE700980699CA8948F2C251C0F60001C3
:1009C000895C88420DD2FFE705980099405801994B
:1009D0000860019804300190FFE70098043000900F
:1009E000E7E708B07047000085B0039002910192DC
:1009F000039890F898008DF803009DF803000128F3
:100A000005D0FFE79DF8030002285DD1FFE70298BB
:100A100003990968896D084207D1FFE703980168C7
:100A2000C86D40F00100C86515E002980399096897
:100A3000896D08400299884207D1FFE70398016851
:100A4000C86D40F00200C86504E003980168032007
:100A5000C865FFE7FFE79DF809008007002809D572
:100A6000FFE7019A03980168D1F8E0001043C1F84C
:100A7000E000FFE79DF809004007002809D5FFE7DF
:100A8000019A03980168D1F8E4001043C1F8E4002A
:100A9000FFE7FFE702984FF6FF71C3F6CF7100EA58
:100AA000010203980168486D10434865029A4AF6AE
:100AB0001401C4F20001086840EA92700860FFE780
:100AC00000208DF813000AE00399D1F89C0040F053
:100AD0000200C1F89C0001208DF81300FFE79DF88B
:100AE000130005B07047000080B586B004900391F4
:100AF00002920398406808B9FFE700E0FFE7049816
:100B000090F89800022845D1FFE704980068D0F8D3
:100B1000C00010F07C5F0BD1FFE70499D1F89C0076
:100B200040F02000C1F89C0001208DF817003CE047
:100B300004980068D0F8C400800200280BD5FFE7B5
:100B40000499D1F89C0040F40070C1F89C00012089
:100B50008DF8170029E004980068D0F8C400C0F3AD
:100B60000440019004980399029A019BFFF7E0FE6C
:100B70000199012000FA01F1049A1268C2F8D0101C
:100B8000019988400499C1F89400FFE700208DF88E
:100B900017000AE00499D1F89C0040F00800C1F861
:100BA0009C0001208DF81700FFE79DF8170006B0A4
:100BB00080BD00000000000087B0059004910598FA
:100BC00090F898008DF803009DF80300012805D0E7
:100BD000FFE79DF8030002286AD1FFE70498C06888
:100BE000072801D1FFE7FFE70498006878BBFFE71B
:100BF0000498C068072801D0FFE7FFE70498C068A1
:100C000007280CD1FFE7049A10699169D2690004A2
:100C100040EA0220084340F0605003900CE0049941
:100C20008868CB680A694969800740EAC36040EA7E
:100C3000024008430390FFE70598C06E0499496895
:100C400000EB810001900398019908602CE0049862
:100C5000C068072801D0FFE7FFE70498C168006972
:100C600040EA417003900498C068072804D1FFE768
:100C700004988069029006E004988168406940EA1F
:100C800081700290FFE70598006F0499496800EBB6
:100C9000C100019003980199086001980430019007
:100CA000029801990860FFE700208DF81B000AE018
:100CB0000599D1F89C0040F00200C1F89C00012089
:100CC0008DF81B00FFE79DF81B0007B07047000080
:100CD0008AB0089007910692059300200190089829
:100CE00090F898008DF803009DF80300022840F06A
:100CF0005E81FFE70798402852D1FFE70898006817
:100D0000D0F8A00010F4FE0F0BD1FFE70899D1F83E
:100D10009C0040F02000C1F89C0001208DF82700C5
:100D200050E108980068D0F8A400400658B9FFE7E1
:100D30000899D1F89C0040F48070C1F89C00012013
:100D40008DF827003EE108980068D0F8A40000F074
:100D500080710120B0EB116F0ED1FFE70898006899
:100D6000D0F8A0104FF00040B0EBD17F03D1FFE7E7
:100D700001200190FFE7FFE708980068D0F8A40081
:100D800000F47C51019800EB112001900898426C0E
:100D9000406F0199514300EB81000490FFE771E03F
:100DA0000798412852D1FFE708980068D0F8B000B2
:100DB00010F4FE0F0BD1FFE70899D1F89C0040F02A
:100DC0002000C1F89C0001208DF82700FAE0089867
:100DD0000068D0F8B400400658B9FFE70899D1F888
:100DE0009C0040F48070C1F89C0001208DF8270021
:100DF000E8E008980068D0F8B40000F080710120A5
:100E0000B0EB116F0ED1FFE708980068D0F8B01072
:100E10004FF00040B0EBD17F03D1FFE701200190FC
:100E2000FFE7FFE708980068D0F8B40000F47C51B1
:100E3000019800EB112001900898C26C806F019915
:100E4000514300EB81000490FFE71AE007980899EE
:100E5000096D88420BD3FFE70899D1F89C0040F058
:100E60002000C1F89C0001208DF82700AAE0089816
:100E7000426DC06F0799514300EB81000490FFE77A
:100E8000FFE7FFE70498006800F08040069948609B
:100E90000698406838B9FFE704980068C0F38A40B4
:100EA0000699086006E00498006820F06040069902
:100EB0000860FFE70498006800F000500699886019
:100EC0000498006800F00040069908610498043016
:100ED0000490049800880699C8610498006800F49A
:100EE00070200699C8600498006800F48010069984
:100EF00048610498006800F400100699886104981D
:100F00000068C0F306600699086204980068C00F84
:100F100006994862049804300490049803900020D5
:100F20000290FFE702980699CA8948F2C251C0F6BA
:100F30000001895C88420AD2FFE70398029A805C2C
:100F400005998854FFE7029801300290EAE7079874
:100F5000402806D1FFE7019808990968C1F8A80060
:100F600021E00798412806D1FFE701980899096810
:100F7000C1F8B80016E007981F2808D8FFE70799BE
:100F80000120884008990968C1F8980009E007988D
:100F900000F01F010120884008990968C1F89C00F1
:100FA000FFE7FFE7FFE700208DF827000AE0089938
:100FB000D1F89C0040F00800C1F89C0001208DF899
:100FC0002700FFE79DF827000AB0704700000000E7
:100FD00080B598B0169048F26451C0F6000101A89F
:100FE0004C22FFF70EFA169820B9FFE701208DF882
:100FF0005F00D9E1169800684AF20001C4F20001CE
:10100000884206D1FFE71699086800F580704860AD
:10101000FFE716988068B0F5407F01D1FFE7FFE752
:101020001698006C08B1FFE7FFE71698806C08B1CE
:10103000FFE7FFE71698006D08B1FFE7FFE7169896
:10104000006E08B1FFE7FFE71699C86D096E084406
:1010500008B1FFE7FFE7169890F8980040B9FFE75E
:101060001699002081F89900169800F0A1F9FFE781
:1010700016980168886920F01000886100F008FC6B
:101080001590FFE71698006880690007002817D5BB
:10109000FFE700F0FDFB1599401A0B280FD3FFE77F
:1010A0001699D1F89C0040F00100C1F89C001699F7
:1010B000032081F8980001208DF85F0074E1E1E7DA
:1010C00016980168886940F00100886100F0E0FB33
:1010D0001590FFE7169800688069C007B8B9FFE768
:1010E00000F0D6FB1599401A0B280FD3FFE716998D
:1010F000D1F89C0040F00100C1F89C001699032033
:1011000081F8980001208DF85F004DE1E2E7169824
:101110000168886940F0020088611698007C012807
:1011200007D1FFE716980168886920F040008861C0
:1011300006E016980168886940F040008861FFE782
:101140001698407C012807D1FFE716980168886946
:1011500040F48040886106E016980168886920F4B0
:1011600080408861FFE71698807C012807D1FFE75F
:1011700016980168886920F48050886106E0169806
:101180000168886940F480508861FFE7169800681C
:10119000806920F44070169A116892681043886143
:1011A00016980168886920F0A40088611698016883
:1011B000086920F0100008611698C068012807D15E
:1011C000FFE716980168886940F0040088612BE009
:1011D0001698C06830B3FFE71698C068022819D087
:1011E000FFE716980168886940F0800088611698CA
:1011F0000168086940F0100008611698C06803286B
:1012000007D1FFE716980168886940F020008861DF
:10121000FFE706E016980168886940F020008861C1
:10122000FFE700E0FFE7FFE7169A1168536990694E
:10123000D2F81CE0A0F1010C6FF0FF0000EB0E20D3
:1012400040EA4C60126A013A10430022CFF6FF7266
:1012500002EB03421043C86116988068B0F5407FE6
:101260001CD1FFE7169A1168536A906AD2F82CE0F5
:1012700001386FF0FF0C0CEB0E2C40EA0C00D2F89A
:1012800030C06FF00F0202EB0C1210430022CFF6B9
:10129000FF7202EB03421043C860FFE71698006E2E
:1012A00048B1FFE716980168426ED1F8C0001043BC
:1012B000C1F8C000FFE71699C86D096E084480B1F7
:1012C000FFE716980068D0F8C80020F00700169ACB
:1012D0001168936E01AA52F823201043C1F8C80088
:1012E000FFE71698006C80B1FFE716980068D0F809
:1012F000BC0020F00700169A1168536C01AA52F83E
:1013000023201043C1F8BC00FFE71698806C88B119
:10131000FFE716980068D0F8BC0020F07000169A1D
:101320001168D36C01AA52F8232040EA0210C1F8D8
:10133000BC00FFE71698006D88B1FFE716980068BB
:10134000D0F8BC0020F4E060169A1168536D01AA31
:1013500052F8232040EA0220C1F8BC00FFE71698AB
:1013600000684AF20001C4F20001884207D1FFE799
:1013700016984168886820F003008860FFE7169996
:101380000020C1F894001699C1F89C00169901201C
:1013900081F898001698FFF767F98DF853009DF8CB
:1013A00053008DF85F00FFE79DF85F0018B080BD27
:1013B00080B588B0079000200690059004900390B7
:1013C0000290079800684AF20001C4F200018842C6
:1013D0002FD1FFE7FFE744F2EC40C5F602000168B9
:1013E00041F480710160006800F480700190019800
:1013F000FFE7FFE744F2E040C5F60200016841F074
:1014000001010160006800F0010000900098FFE712
:101410004FF4C050029002200390002004900590E9
:10142000092006900020C5F6020002A900F02CF861
:10143000FFE708B080BD000082B00090009890F8EF
:101440009800012811D1FFE70099022081F8980047
:1014500000980168886920F00100886100990020E7
:10146000C1F89C008DF807000AE00099D1F89C00B3
:1014700040F00400C1F89C0001208DF80700FFE750
:101480009DF8070002B0704790B00F900E910020B9
:101490000D908020C5F600000A90FFE70E980068C6
:1014A0000D99C840002800F0CF81FFE70E98006832
:1014B0000D9A0121914008400C900C98002800F0F2
:1014C000BF81FFE70E98406800F00300012807D0B5
:1014D000FFE70E98406800F0030002282FD1FFE7D5
:1014E0000F9880680B900D984100032000FA01F1DD
:1014F0000B9888430B900E98C0680D99490000FA2C
:1015000001F10B9808430B900B980F9988600F9886
:1015100040680B900D99012000FA01F10B98884367
:101520000B900E984068C0F300100D9900FA01F17D
:101530000B9808430B900B980F994860FFE70E98A3
:10154000406800F00300032818D0FFE70F98C06838
:101550000B900D984100032000FA01F10B9888438D
:101560000B900E9880680D99490000FA01F10B98D4
:1015700008430B900B980F99C860FFE70E984068DE
:1015800000F00300022826D1FFE70F980D996FF0B5
:10159000030202EA51010844006A0B900D9800F022
:1015A000070081000F2000FA01F10B9888430B908F
:1015B0000E9800690D9901F00701890000FA01F108
:1015C0000B9808430B900B980F990D9B02EA53025E
:1015D00011440862FFE70F9800680B900D984100D6
:1015E000032000FA01F10B9888430B900E98406895
:1015F00000F003000D99490000FA01F10B9808432F
:101600000B900B980F9908600E988079800700283E
:1016100000F01581FFE7FFE744F2F440C5F6020051
:10162000016841F002010160006800F002000990C9
:101630000998FFE70D9820F0030040F20841C5F635
:10164000000140580B900D9800F0030081000F201E
:1016500000FA01F10B9888430B900F980021C5F612
:101660000201884203D1FFE7002008907AE00F983A
:1016700040F20041C5F60201884203D1FFE7012094
:1016800007906CE00F9840F60001C5F60201884211
:1016900003D1FFE7022006905EE00F9840F600417C
:1016A000C5F60201884203D1FFE70320059050E010
:1016B0000F9841F20001C5F60201884203D1FFE70D
:1016C0000420049042E00F9841F20041C5F6020167
:1016D000884203D1FFE70520039034E00F9841F6DC
:1016E0000001C5F60201884203D1FFE706200290FF
:1016F00026E00F9841F60041C5F60201884203D169
:10170000FFE70720019018E00F9842F20001C5F6AC
:101710000201884203D1FFE7082000900AE00F99F8
:1017200042F20042C5F602020A20914208BF092097
:101730000090FFE700980190FFE701980290FFE713
:1017400002980390FFE703980490FFE70498059040
:10175000FFE705980690FFE706980790FFE70798D0
:101760000890FFE708980D9901F00301890000FA3D
:1017700001F10B9808430B900B980D9921F0030190
:1017800040F20842C5F6000288504FF0B0400068B1
:101790000B900C990B9888430B900E988079C0069B
:1017A000002805D5FFE70C990B9808430B90FFE73D
:1017B0000B984FF0B04108600420C5F600000068A7
:1017C0000B900C990B9888430B900E9880798006AB
:1017D000002805D5FFE70C990B9808430B90FFE70D
:1017E0000B980421C5F6000108600A9840680B9028
:1017F0000C990B9888430B900E98807980070028ED
:1018000005D5FFE70C990B9808430B90FFE70B9861
:101810000A9948600A9800680B900C990B988843C5
:101820000B900E988079C00728B1FFE70C990B98B0
:1018300008430B90FFE70B980A990860FFE7FFE762
:101840000D9801300D9029E610B07047000000009F
:1018500082B00190ADF802108DF801209DF80100D2
:1018600028B1FFE7BDF802000199886105E0BDF8E5
:101870000200000401998861FFE702B07047000090
:1018800041F20000C5F600400068000C70470000FF
:1018900044F29C30C2F20040006870470000000033
:1018A00040F20C00C2F20040027844F29C31C2F2D5
:1018B0000041086810440860704700000000000004
:1018C00080B582B0032000F0DFF801F0C9FB44F2DC
:1018D0001842C5F602021168C1F3032348F2B2515F
:1018E000C0F60001CB5C03F01F03D84000900098C5
:1018F000126802F00F02895C01F01F01C84040F23B
:101900000401C2F200410860009840F20001C2F2F6
:10191000004108600F2000F013F820B1FFE701201C
:101920008DF8070005E000F06FF800208DF8070043
:10193000FFE79DF8070002B080BD00000000000036
:1019400080B590B00E900E980F2810D8FFE70E9932
:1019500076200190002200F07FF8019800F070F8E6
:101960000E9840F21001C2F20041086003E001202D
:101970008DF83F0044E0FFE744F2F040C5F6020076
:10198000016841F480210160006800F48020029029
:101990000298FFE706A803A901F0DEFA01F04CFB6C
:1019A0004000059005984DF68361C4F21B31A0FB01
:1019B00001014FF0FF3000EB9140049040F2DC1049
:1019C000C2F2004044F60001C4F20101016040F29D
:1019D000E731C1600499416000210161816002F03A
:1019E000B7FB48B9FFE740F2DC10C2F2004002F05A
:1019F00007FC8DF83F0003E001208DF83F00FFE772
:101A00009DF83F0010B080BD80B582B0FFE744F282
:101A1000F440C5F60200016841F00201016000686F
:101A200000F0020001900198FFE76FF001000F2124
:101A3000002200F011F802B080BD0000000000009C
:101A400080B582B0ADF80600BDF9060003F014FCC5
:101A500002B080BD0000000080B586B0ADF8160071
:101A60000491039203F020FC0290BDF9160001904E
:101A700002980499039A02F007FF0146019803F0C7
:101A80001BFC06B080BD000080B582B001900198BB
:101A900003F05AFC02B080BD80B584B0029044F6D9
:101AA0000C00C5F60200006800F004010020B0EB55
:101AB000910F13D1FFE744F60C00C5F60200006851
:101AC00000F007000299884204D0FFE701208DF85A
:101AD0000F002EE000208DF80F002AE044F60C01E4
:101AE000C5F60201086820F00700029A104308605A
:101AF000FFF7CEFE0190FFE744F60400C5F60200B2
:101B0000006800F400510020B0EB513F0DD1FFE719
:101B1000FFF7BEFE0199401AB0F57A7F04D9FFE7BE
:101B200001208DF80F0004E0E6E700208DF80F009B
:101B3000FFE79DF80F0004B080BD0000000000002A
:101B400080B59AB0189000208DF857008DF8560097
:101B50001898C0780007002848D5FFE71898406E0D
:101B6000149078B1FFE71498B0F5801F13D0FFE709
:101B70001498B0F5001F16D0FFE71498B0F5401F79
:101B800019D019E044F22C41C5F60201086840F46E
:101B90000030086014E018980430022102F00CFFB5
:101BA0008DF857000CE018982430022102F0ECFF69
:101BB0008DF8570004E003E001208DF85700FFE79F
:101BC0009DF8570060B9FFE744F25041C5F60201A5
:101BD000086820F44010189A526E1043086004E020
:101BE0009DF857008DF85600FFE7FFE718984078FA
:101BF000C007002840D0FFE71898406D13900428D4
:101C000020D81399DFE801F0030C141C1D0044F2E6
:101C10002C41C5F60201086840F40030086015E068
:101C200018980430002102F0C7FE8DF857000DE02F
:101C300018982430002102F0A7FF8DF8570005E026
:101C400004E003E001208DF85700FFE79DF85700FE
:101C500060B9FFE744F25041C5F60201086820F080
:101C60000700189A526D1043086004E09DF8570071
:101C70008DF85600FFE7FFE71898407880070028A6
:101C80004BD5FFE71898806D129088B1FFE7129846
:101C9000402816D0FFE7129880281AD0FFE7129844
:101CA000C0281ED0FFE71298B0F5807F1AD01AE046
:101CB00044F22C41C5F60201086840F40030086087
:101CC00015E018980430002102F076FE8DF85700D8
:101CD0000DE018982430002102F056FF8DF85700CF
:101CE00005E004E003E001208DF85700FFE79DF8D0
:101CF000570060B9FFE744F25041C5F60201086899
:101D000020F4E070189A926D1043086004E09DF88A
:101D100057008DF85600FFE7FFE718984078400716
:101D2000002850D5FFE71898D0F8A4001190A0B172
:101D3000FFE71198B0F5001F18D0FFE71198B0F534
:101D4000800F1BD0FFE71198B0F5C00F1ED0FFE742
:101D50001198B0F5000F1AD01AE044F22C41C5F6E4
:101D60000201086840F40030086015E0189804305B
:101D7000002102F021FE8DF857000DE01898243064
:101D8000002102F001FF8DF8570005E004E003E0B8
:101D900001208DF85700FFE79DF8570068B9FFE76D
:101DA00044F25841C5F60201086820F46000189A10
:101DB000D2F8A4201043086004E09DF857008DF885
:101DC0005600FFE7FFE7189840780007002850D535
:101DD000FFE71898D0F8A8001090A0B1FFE710987E
:101DE000B0F1807F18D0FFE71098B0F1007F1BD0D2
:101DF000FFE71098B0F1407F1ED0FFE71098B0F1D8
:101E0000806F1AD01AE044F22C41C5F6020108682E
:101E100040F40030086015E018980430002102F00A
:101E2000CBFD8DF857000DE018982430002102F00A
:101E3000ABFE8DF8570005E004E003E001208DF8CB
:101E40005700FFE79DF8570068B9FFE744F2584193
:101E5000C5F60201086820F0E060189AD2F8A820C0
:101E60001043086004E09DF857008DF85600FFE726
:101E7000FFE71898C078800700283ED5FFE718983C
:101E8000806C0F90F0B1FFE70F98102808D0FFE7A3
:101E90000F9820280DD0FFE70F98302811D012E0BE
:101EA00044F22C41C5F60201086840F40030086095
:101EB0000DE018980430022102F07EFD8DF85700E5
:101EC00005E004E003E001208DF85700FFE79DF8EE
:101ED000570060B9FFE744F24C41C5F602010868BB
:101EE00020F03000189A926C1043086004E09DF8CE
:101EF00057008DF85600FFE7FFE718984078C006B6
:101F000000284ED5FFE71898C06D0E90A0B1FFE7EE
:101F10000E98B0F5805F18D0FFE70E98B0F5005F1F
:101F20001BD0FFE70E98B0F5405F1ED0FFE70E987C
:101F3000B0F5804F1AD01AE044F22C41C5F60201E8
:101F4000086840F40030086015E01898043000215B
:101F500002F032FD8DF857000DE018982430002172
:101F600002F012FE8DF8570005E004E003E00120C6
:101F70008DF85700FFE79DF8570060B9FFE744F27E
:101F80005041C5F60201086820F4E040189AD26D6D
:101F90001043086004E09DF857008DF85600FFE7F5
:101FA000FFE718984078800600284CD5FFE718987E
:101FB000006E0D90C8B1FFE70D98B0F5803F15D0C9
:101FC000FFE70D98B0F5003F18D0FFE70D98B0F58A
:101FD000403F1BD0FFE70D98B0F5802F17D0FFE7EB
:101FE0000D98B0F5A02F13D013E016E01898043028
:101FF000012102F0E1FC8DF857000EE01898243022
:10200000012102F0C1FD8DF8570006E005E004E073
:1020100003E001208DF85700FFE79DF8570060B9F5
:10202000FFE744F25041C5F60201086820F4E020C1
:10203000189A126E1043086004E09DF857008DF85E
:102040005600FFE7FFE718984078400600284ED575
:10205000FFE71898D0F8AC000C90C8B1FFE70C98D7
:10206000B0F1805F15D0FFE70C98B0F1005F18D099
:10207000FFE70C98B0F1405F1BD0FFE70C98B0F180
:10208000804F17D0FFE70C98B0F1A04F13D013E0AA
:1020900016E018980430012102F08EFC8DF85700EC
:1020A0000EE018982430012102F06EFD8DF85700E3
:1020B00006E005E004E003E001208DF85700FFE7AB
:1020C0009DF8570068B9FFE744F25841C5F6020190
:1020D000086820F0E040189AD2F8AC20104308605D
:1020E00004E09DF857008DF85600FFE7FFE71898C9
:1020F0004078000600283BD5FFE71898C06E0B908B
:10210000D8B1FFE70B98B0F1805F05D0FFE70B98DF
:10211000B0F1005F09D011E044F22C41C5F6020194
:10212000086840F4003008600CE018980430012181
:1021300002F042FC8DF8570004E003E001208DF826
:102140005700FFE79DF8570060B9FFE744F25041A0
:10215000C5F60201086820F04050189AD26E10436C
:10216000086004E09DF857008DF85600FFE7FFE790
:102170001898C078C007002837D0FFE71898406C3F
:102180000A90032817D80A99DFE801F014020B130C
:1021900044F22C41C5F60201086840F400300860A2
:1021A0000DE018980430022102F006FC8DF857006B
:1021B00005E004E003E001208DF85700FFE79DF8FB
:1021C000570060B9FFE744F24C41C5F602010868C8
:1021D00020F00300189A526C1043086004E09DF848
:1021E00057008DF85600FFE7FFE718988078400603
:1021F000002840F1B480FFE744F60001C5F6020173
:10220000086840F480700860FFF742FB1690FFE713
:1022100044F60000C5F602000068C00500280CD492
:10222000FFE7FFF735FB1699401A652804D3FFE74F
:1022300003208DF8570000E0EAE79DF857000028DA
:1022400040F08780FFE744F27040C5F60200006866
:1022500000F440701899D1F8B01001F44071884230
:1022600013D0FFE744F27041C5F60201086820F47C
:1022700040701790086840F480300860086820F4C7
:102280008030086017980860FFE71898D0F8B00011
:10229000B0F5807F1FD1FFE7FFF7FAFA1690FFE74E
:1022A00044F27040C5F60200006800F00201002010
:1022B000B0EB510F0ED1FFE7FFF7EAFA1699401A7B
:1022C00041F28931884204D3FFE703208DF857009B
:1022D00000E0E5E7FFE79DF85700A0BBFFE7FFE759
:1022E0001898D0F8B00000F44070B0F5407F13D1DA
:1022F000FFE744F21041C5F60201086820F47C5063
:10230000189AD2F8B0204FF6F043C0F6FF731A4087
:1023100040EA1210086008E044F21041C5F60201DC
:10232000086820F47C500860FFE71898D0F8B020C7
:102330006FF31F3244F27041C5F602010868104382
:102340000860FFE704E09DF857008DF85600FFE7AE
:1023500004E09DF857008DF85600FFE7FFE7189856
:102360000078C007002800F04C80FFE71898806FC5
:10237000099028282BD80999DFE801F01529292987
:102380002929292916292929292929291E292929DB
:1023900029292929262929292929292927292929B2
:1023A00029292929280016E018980430012102F073
:1023B00003FB8DF857000EE018982430012102F03D
:1023C000E3FB8DF8570006E005E004E003E00120A0
:1023D0008DF85700FFE79DF8570060B9FFE744F21A
:1023E0005441C5F60201086820F03800189A926F2F
:1023F0001043086004E09DF857008DF85600FFE791
:10240000FFE7189800788007002839D5FFE718986B
:10241000406F0890052819D80899DFE801F00304F7
:102420000C14151616E018980430012102F0C4FAB5
:102430008DF857000EE018982430012102F0A4FB1B
:102440008DF8570006E005E004E003E001208DF878
:102450005700FFE79DF8570060B9FFE744F2544189
:10246000C5F60201086820F00700189A526F104361
:10247000086004E09DF857008DF85600FFE7FFE77D
:1024800018980078400700283BD5FFE71898D0F847
:1024900090000790052819D80799DFE801F0030498
:1024A0000C14151616E018980430012102F084FA75
:1024B0008DF857000EE018982430012102F064FBDB
:1024C0008DF8570006E005E004E003E001208DF8F8
:1024D0005700FFE79DF8570068B9FFE744F25841FD
:1024E000C5F60201086820F00700189AD2F890207B
:1024F0001043086004E09DF857008DF85600FFE790
:10250000FFE718980078800600284ED5FFE7189856
:10251000D0F88C000690C8B1FFE70698B0F1805F54
:1025200015D0FFE70698B0F1005F18D0FFE70698D6
:10253000B0F1405F1BD0FFE70698B0F1804F17D095
:10254000FFE70698B0F1A04F13D013E016E01898FB
:102550000430002102F030FA8DF857000EE0189890
:102560002430022102F010FB8DF8570006E005E050
:1025700004E003E001208DF85700FFE79DF85700C5
:1025800068B9FFE744F25441C5F60201086820F03B
:10259000E040189AD2F88C201043086004E09DF8BF
:1025A00057008DF85600FFE7FFE7189800784006BF
:1025B00000284ED5FFE71898D0F898000590C8B1CC
:1025C000FFE70598B0F5806F15D0FFE70598B0F5E7
:1025D000006F18D0FFE70598B0F5406F1BD0FFE7FC
:1025E0000598B0F5805F17D0FFE70598B0F5A05FBC
:1025F00013D013E016E018980430002102F0DCF943
:102600008DF857000EE018982430022102F0BCFA31
:102610008DF8570006E005E004E003E001208DF8A6
:102620005700FFE79DF8570068B9FFE744F25841AB
:10263000C5F60201086820F4E050189AD2F89820F4
:102640001043086004E09DF857008DF85600FFE73E
:10265000FFE718980078000600284ED5FFE7189885
:10266000D0F89C000490C8B1FFE70498B0F5005F73
:1026700015D0FFE70498B0F5804F18D0FFE7049815
:10268000B0F5C04F1BD0FFE70498B0F5004F17D04E
:10269000FFE70498B0F5204F13D013E016E0189828
:1026A0000430002102F088F98DF857000EE01898E8
:1026B0002430022102F068FA8DF8570006E005E0A8
:1026C00004E003E001208DF85700FFE79DF8570074
:1026D00068B9FFE744F25841C5F60201086820F4E2
:1026E0006040189AD2F89C201043086004E09DF8DE
:1026F00057008DF85600FFE7FFE7189800780007AD
:10270000002820D5FFE71898D0F88000B0F5805F4A
:102710000CD1FFE718982430022102F035FA20B1DD
:10272000FFE701208DF85600FFE7FFE744F2544130
:10273000C5F60201086820F44050189AD2F88020AB
:1027400010430860FFE718980078C006002820D5DD
:10275000FFE71898D0F89400B0F5807F0CD1FFE720
:1027600018982430022102F00FFA20B1FFE701206F
:102770008DF85600FFE7FFE744F25841C5F6020125
:10278000086820F44070189AD2F89420104308602A
:10279000FFE718988078000700283CD5FFE71898D5
:1027A000D0F8A000039050B1FFE70398B0F5803F48
:1027B0000DD0FFE70398B0F5003F10D010E0189857
:1027C0000430002102F0F8F88DF857000CE018985A
:1027D0002430022102F0D8F98DF8570004E003E01C
:1027E00001208DF85700FFE79DF8570068B9FFE713
:1027F00044F25841C5F60201086820F44030189AA6
:10280000D2F8A0201043086004E09DF857008DF82E
:102810005600FFE7FFE718988078400700283FD56B
:10282000FFE71898D0F884000290B0F5801F0AD016
:10283000FFE70298B0F5001F0ED0FFE70298B0F551
:10284000401F11D011E044F22C41C5F60201086886
:1028500040F4003008600CE018982430012102F0A8
:1028600093F98DF8570004E003E001208DF857003C
:10287000FFE79DF8570068B9FFE744F25441C5F6F9
:102880000201086820F44010189AD2F884201043FE
:10289000086004E09DF857008DF85600FFE7FFE759
:1028A00018988078C007A8B3FFE71898C06C01900B
:1028B00028B1FFE70198B0F5803F09D010E044F25D
:1028C0002C41C5F60201086840F4003008600BE0B6
:1028D00018980430022102F06FF88DF8570003E0D9
:1028E00001208DF85700FFE79DF8570060B9FFE71A
:1028F00044F24C41C5F60201086820F48030189A71
:10290000D26C1043086004E09DF857008DF8560023
:10291000FFE7FFE71898C078800600280CD5FFE78E
:1029200018982430022102F02FF920B1FFE701208E
:102930008DF85600FFE7FFE7189880788007002899
:102940003AD5FFE71898C06F0090D0B1FFE7009824
:10295000B0F5807F0AD0FFE70098B0F5007F0ED079
:10296000FFE70098B0F5407F0AD00BE044F22C411D
:10297000C5F60201086840F40030086006E005E092
:1029800004E003E001208DF85700FFE79DF85700B1
:1029900060B9FFE744F25441C5F60201086820F42B
:1029A0004070189AD26F1043086004E09DF85700F9
:1029B0008DF85600FFE7FFE718988078C0060028DA
:1029C0000CD5FFE744F25041C5F60201086820F03B
:1029D0000040189A126F10430860FFE71898C078FB
:1029E000C00600280DD5FFE744F21041C5F60201EC
:1029F000086820F48040189AD2F8B4201043086088
:102A0000FFE718988078800600280CD5FFE744F28D
:102A10005041C5F60201086820F08070189A926E45
:102A200010430860FFE71898C0784006002811D5C9
:102A3000FFE7FFE744F21041C5F60201086820F401
:102A4000004008601898D0F8B82008681043086063
:102A5000FFE7FFE71898C078000600280CD5FFE7CD
:102A600044F24C41C5F60201086820F04050189A23
:102A7000126D10430860FFE7189880780006002860
:102A80000DD5FFE744F25441C5F60201086820F471
:102A90004000189AD2F8882010430860FFE79DF89C
:102AA000560020B9FFE700208DF8670003E0012001
:102AB0008DF86700FFE79DF867001AB080BD000041
:102AC00080B586B004900391049820B9FFE70120F7
:102AD0008DF817003CE2039842F20001C5F2002194
:102AE000096801F00F01884216D9FFE742F20000A1
:102AF000C5F20020016821F00F01039A1143016023
:102B0000006800F00F000399884204D0FFE701201D
:102B10008DF817001CE2FFE70498007840070028B2
:102B200019D5FFE70498006944F21841C5F602017F
:102B3000096801F0700188420CD9FFE744F218419E
:102B4000C5F60201086820F07000049A126910436B
:102B50000860FFE7FFE7049800780007002819D510
:102B6000FFE70498406944F21C41C5F60201096878
:102B700001F0700188420CD9FFE744F21C41C5F610
:102B80000201086820F07000049A5269104308603E
:102B9000FFE7FFE704980078C006002819D5FFE793
:102BA0000498806944F21C41C5F60201096801F4E9
:102BB000E06188420CD9FFE744F21C41C5F60201EE
:102BC000086820F4E060049A926910430860FFE707
:102BD000FFE7049800788006002819D5FFE70498DD
:102BE000C06944F22041C5F60201096801F0700194
:102BF00088420CD9FFE744F22041C5F6020108687B
:102C000020F07000049AD26910430860FFE7FFE7E4
:102C1000049800788007002819D5FFE70498C06859
:102C200044F21841C5F60201096801F00F0188421B
:102C30000CD9FFE744F21841C5F60201086820F0FC
:102C40000F00049AD26810430860FFE7FFE704987A
:102C50000078C007002800F08C80FFE744F218419C
:102C6000C5F60201086820F47060049A9268104367
:102C7000086004984068022811D1FFE744F2004040
:102C8000C5F60200006800F400310020B0EB514F9F
:102C900004D1FFE701208DF8170059E13EE00498C8
:102CA0004068032811D1FFE744F20040C5F6020056
:102CB000006800F000710020B0EB516F04D1FFE715
:102CC00001208DF8170043E127E0049840680128AF
:102CD00011D1FFE744F20040C5F60200006800F49D
:102CE00080710020B0EB112F04D1FFE701208DF897
:102CF00017002DE110E044F20040C5F60200006824
:102D000000F004010020B0EB910F04D1FFE7012097
:102D10008DF817001CE1FFE7FFE7FFE744F21041E1
:102D2000C5F60201086820F00700049A52681043B3
:102D30000860FEF7ADFD0190FFE744F21040C5F6D4
:102D40000200006800F0380004994968B0EBC10F38
:102D50000ED0FFE7FEF79CFD0199401A41F2893140
:102D6000884204D3FFE703208DF81700F0E0E4E782
:102D7000FFE7049800788007002819D5FFE704983A
:102D8000C06844F21841C5F60201096801F00F015C
:102D900088420CD2FFE744F21841C5F602010868E8
:102DA00020F00F00049AD26810430860FFE7FFE7A5
:102DB000039842F20001C5F20021096801F00F01F9
:102DC000884216D2FFE742F20000C5F200200168F7
:102DD00021F00F01039A11430160006800F00F0019
:102DE0000399884204D0FFE701208DF81700AFE077
:102DF000FFE7049800784007002819D5FFE70498FA
:102E0000006944F21841C5F60201096801F0700139
:102E100088420CD2FFE744F21841C5F60201086867
:102E200020F07000049A126910430860FFE7FFE782
:102E3000049800780007002819D5FFE70498406936
:102E400044F21C41C5F60201096801F07001884294
:102E50000CD2FFE744F21C41C5F60201086820F0DD
:102E60007000049A526910430860FFE7FFE7049876
:102E70000078C006002819D5FFE70498806944F25D
:102E80001C41C5F60201096801F4E06188420CD2D8
:102E9000FFE744F21C41C5F60201086820F4E06037
:102EA000049A926910430860FFE7FFE704980078EE
:102EB0008006002819D5FFE70498C06944F2204134
:102EC000C5F60201096801F0700188420CD2FFE7E3
:102ED00044F22041C5F60201086820F07000049A0F
:102EE000D26910430860FFE7FFE700F0B9F844F249
:102EF0001842C5F602021168C1F3032348F2B25129
:102F0000C0F60001CB5C03F01F03D840009000988E
:102F1000126802F00F02895C01F01F01C84040F204
:102F20000401C2F200410860009840F20001C2F2C0
:102F30000041086040F21000C2F200400068FEF755
:102F4000FFFC8DF80B009DF80B008DF81700FFE7D4
:102F50009DF8170006B080BD82B0019000910199E4
:102F60003F20086044F21040C5F60200006800F0FF
:102F700007000199486044F21840C5F60200016854
:102F800001F47061019A9160016801F00F01019AEA
:102F9000D160006800F070000199086144F21C40A3
:102FA000C5F60200016801F07001019A51610068E4
:102FB00000F4E0600199886144F22040C5F6020007
:102FC000006800F070000199C86142F20000C5F28B
:102FD0000020006800F00F000099086002B0704700
:102FE00080B582B000F03CF844F21842C5F6020207
:102FF0001168C1F3032348F2B251C0F60001CB5C63
:1030000003F01F03D84001900198126802F00F02EC
:10301000895C01F01F0120FA01F140F20400C2F2C4
:1030200000400160019940F20002C2F200421160CA
:10303000006802B080BD000080B5FFF7D1FF44F208
:103040001C41C5F602010968C1F3022248F2B251DF
:10305000C0F60001895C01F01F01C84080BD00007E
:103060008AB044F21040C5F60200006800F0380053
:1030700001460191182800F269810199DFE811F0F9
:103080001900660166016601660166016601660156
:103090003A00660166016601660166016601660125
:1030A000400066016601660166016601660166010F
:1030B000460044F20040C5F60200006800F020011E
:1030C0000020B0EB511F0ED0FFE744F20040C5F6E0
:1030D00002000068C0F3C10149F20000C0F2D03024
:1030E000C840029005E049F20000C0F2D0300290E2
:1030F000FFE731E140F60010C0F23D0002902BE105
:1031000047F64000C0F27D10029025E144F22840CD
:10311000C5F60200016801F0030108910068C0F3E0
:103120000510079044F22C40C5F60200006800F03C
:1031300001000690069844F23441C5F60201096880
:1031400089B2C908484300EE100AB8EE400A8DED76
:10315000040A0798002800F0F580FFE7089800901F
:1031600048B1FFE70098012869D0FFE700980228DE
:1031700000F08980ABE044F20040C5F60200006830
:1031800000F020010020B0EB511F33D0FFE744F2E4
:103190000040C5F602000068C0F3C10149F200001A
:1031A000C0F2D030C84005909DED050AB8EE400A47
:1031B0009DED071AB8EE411A80EE010A44F2304044
:1031C000C5F6020000686FF35F2001EE100AB8EE4A
:1031D000411A9DED042A9FED633A82EE032A31EEF7
:1031E000021AB7EE002A31EE021A20EE010A8DED26
:1031F000030A23E09DED070AB8EE401A9FED5B0A33
:1032000080EE010A44F23040C5F6020000686FF318
:103210005F2001EE100AB8EE411A9DED042A9FEDE1
:10322000513A82EE032A31EE021AB7EE002A31EE4D
:10323000021A20EE010A8DED030AFFE76BE09DED17
:10324000070AB8EE401A9FED480A80EE010A44F2E0
:103250003040C5F6020000686FF35F2001EE100AEF
:10326000B8EE411A9DED042A9FED3E3A82EE032A04
:1032700031EE021AB7EE002A31EE021A20EE010AF0
:103280008DED030A47E09DED070AB8EE401A9FED69
:10329000340A80EE010A44F23040C5F602000068AC
:1032A0006FF35F2001EE100AB8EE411A9DED042A7B
:1032B0009FED2C3A82EE032A31EE021AB7EE002A75
:1032C00031EE021A20EE010A8DED030A23E09DED96
:1032D000070AB8EE401A9FED240A80EE010A44F274
:1032E0003040C5F6020000686FF35F2001EE100A5F
:1032F000B8EE411A9DED042A9FED1A3A82EE032A98
:1033000031EE021AB7EE002A31EE021A20EE010A5F
:103310008DED030AFFE744F23040C5F60200006875
:1033200081B2012000EB512009909DED030A9DED33
:10333000091AB8EE411A80EE010ABCEEC00A8DED02
:10334000020A02E000200290FFE705E040F60010CC
:10335000C0F23D000290FFE702980AB0704700BF3C
:1033600020BCBE4B000000460024744A0024744C6C
:1033700080B58CB00A900A9828B9FFE701208DF833
:103380002F0000F064BD0A980078C007002800F004
:10339000B980FFE744F21040C5F60200006800F073
:1033A0003800069044F22840C5F6020000680590F7
:1033B000069810280AD0FFE7069818281CD1FFE7C6
:1033C000059800F00300022816D1FFE744F2004000
:1033D000C5F60200006800F400310020B0EB514F48
:1033E00009D0FFE70A98406828B9FFE701208DF867
:1033F0002F0000F02CBD84E0FFE70A984068B0F58C
:10340000803F09D1FFE744F20041C5F60201086898
:1034100040F48030086032E00A98406868B9FFE7FD
:1034200044F20041C5F60201086820F480300860CB
:10343000086820F48020086020E00A984068B0F511
:10344000A02F0DD1FFE744F20041C5F60201086844
:1034500040F480200860086840F4803008600CE088
:1034600044F20041C5F60201086820F4803008608B
:10347000086820F480200860FFE7FFE7FFE7FFE728
:103480000A984068F0B1FFE7FEF702FA0990FFE7FB
:1034900044F20040C5F60200006800F4003100204C
:1034A000B0EB514F0DD1FFE7FEF7F2F90999401A41
:1034B000652805D3FFE703208DF82F0000F0C7BC77
:1034C000E6E71DE0FEF7E4F90990FFE744F200406B
:1034D000C5F60200006800F400310020B0EB514F47
:1034E0000DD0FFE7FEF7D4F90999401A652805D3F6
:1034F000FFE703208DF82F0000F0A9BCE6E7FFE707
:10350000FFE7FFE70A9800788007002840F115815F
:10351000FFE744F21040C5F60200006800F03800F2
:10352000049044F22840C5F6020000680390049815
:1035300050B1FFE70498182878D1FFE79DF80C00F8
:103540008007002872D1FFE744F20040C5F6020070
:10355000006800F004010020B0EB910F09D0FFE7F4
:103560000A98C06828B9FFE701208DF82F0000F005
:103570006EBC44F20041C5F60201086820F0190053
:103580000A9AD26810430860FEF782F90990FFE7B3
:1035900044F20040C5F60200006800F0040100207B
:1035A000B0EB910F0DD1FFE7FEF772F90999401AC0
:1035B000032805D3FFE703208DF82F0000F047BC58
:1035C000E6E7FFE7FEF75CF941F2030188421DD808
:1035D000FFE70A98006940280AD1FFE744F2044156
:1035E000C5F602010868202262F3113008600CE081
:1035F00044F20441C5F60201086820F47C300A9ABE
:10360000126940EA02300860FFE70CE044F204412E
:10361000C5F60201086820F0FE400A9A126940EAE5
:1036200002600860FFE7FFE7FFE785E00A98C068EF
:1036300000285BD0FFE744F20041C5F602010868AC
:1036400020F019000A9AD26810430860FEF720F9AA
:103650000990FFE744F20040C5F60200006800F060
:1036600004010020B0EB910F0CD1FFE7FEF710F939
:103670000999401A032804D3FFE703208DF82F008F
:10368000E5E3E7E7FFE7FEF7FBF841F203018842D5
:103690001DD8FFE70A98006940280AD1FFE744F2E5
:1036A0000441C5F602010868202262F31130086067
:1036B0000CE044F20441C5F60201086820F47C30B5
:1036C0000A9A126940EA02300860FFE70CE044F20F
:1036D0000441C5F60201086820F0FE400A9A12690A
:1036E00040EA02600860FFE7FFE724E044F200419F
:1036F000C5F60201086820F001000860FEF7C8F86E
:103700000990FFE744F20040C5F60200006800F0AF
:1037100004010020B0EB910F0CD0FFE7FEF7B8F8E2
:103720000999401A032804D3FFE703208DF82F00DE
:103730008DE3E7E7FFE7FFE7FFE70A980078C006B9
:10374000002840F1EB80FFE744F21040C5F602008C
:10375000006800F03800029044F22840C5F60200EC
:1037600000680190029808280AD0FFE702981828FC
:1037700050D1FFE7019800F0030001284AD1FFE78C
:1037800044F20040C5F60200006800F48071002099
:10379000B0EB112F09D0FFE70A98C069802804D048
:1037A000FFE701208DF82F0051E3FFE7FEF768F8EF
:1037B00041F2030188421DD8FFE70A98006A2028D9
:1037C0000AD1FFE744F20441C5F60201086810225D
:1037D00062F39E6008600CE044F20441C5F6020109
:1037E000086820F0F8400A9A126A40EA826008608D
:1037F000FFE70CE044F20C41C5F60201086820F036
:103800007C500A9A126A40EA02600860FFE7FFE70C
:10381000FFE782E00A98C069002858D0FFE744F229
:103820000041C5F60201086840F080000860FEF71C
:103830002FF80990FFE744F20040C5F60200006847
:1038400000F480710020B0EB112F0CD1FFE7FEF7E0
:103850001FF80999401A032804D3FFE703208DF8C5
:103860002F00F4E2E7E7FFE7FEF70AF841F2030171
:1038700088421DD8FFE70A98006A20280AD1FFE78E
:1038800044F20441C5F602010868102262F39E600A
:1038900008600CE044F20441C5F60201086820F01B
:1038A000F8400A9A126A40EA82600860FFE70CE07A
:1038B00044F20C41C5F60201086820F07C500A9AD7
:1038C000126A40EA02600860FFE7FFE724E044F282
:1038D0000041C5F60201086820F080000860FDF78D
:1038E000D7FF0990FFE744F20040C5F602000068E8
:1038F00000F480710020B0EB112F0CD0FFE7FDF732
:10390000C7FF0999401A032804D3FFE703208DF865
:103910002F009CE2E7E7FFE7FFE7FFE70A98007860
:10392000000700284FD5FFE70A98406928B3FFE752
:1039300044F27441C5F60201086840F001000860D5
:10394000FDF7A6FF0990FFE744F27440C5F60200B8
:10395000006800F002010020B0EB510F0CD1FFE72E
:10396000FDF796FF0999401A032804D3FFE70320C7
:103970008DF82F006BE2E7E724E044F27441C5F6CE
:103980000201086820F001000860FDF781FF09903E
:10399000FFE744F27440C5F60200006800F002013F
:1039A0000020B0EB510F0CD0FFE7FDF771FF099934
:1039B000401A032804D3FFE703208DF82F0046E2C6
:1039C000E7E7FFE7FFE70A980078800600284FD571
:1039D000FFE70A98806928B3FFE744F20041C5F683
:1039E0000201086840F480500860FDF751FF09901B
:1039F000FFE744F20040C5F60200006800F4005101
:103A00000020B0EB513F0CD1FFE7FDF741FF0999D2
:103A1000401A032804D3FFE703208DF82F0016E295
:103A2000E7E724E044F20041C5F60201086820F40B
:103A300080500860FDF72CFF0990FFE744F200403A
:103A4000C5F60200006800F400510020B0EB513FC1
:103A50000CD0FFE7FDF71CFF0999401A032804D397
:103A6000FFE703208DF82F00F1E1E7E7FFE7FFE72D
:103A70000A9800784007002840F1A780FFE744F645
:103A80000001C5F60201086840F480700860FDF787
:103A9000FFFE0990FFE744F60000C5F6020000684B
:103AA000C00500280CD4FFE7FDF7F2FE0999401A83
:103AB000652804D3FFE703208DF82F00C7E1EAE76C
:103AC000FFE70A988068012809D1FFE744F27041B6
:103AD000C5F60201086840F00100086031E00A986C
:103AE000806868B9FFE744F27041C5F602010868D2
:103AF00020F001000860086820F0040008601FE062
:103B00000A98806805280DD1FFE744F27041C5F698
:103B10000201086840F004000860086840F00100F5
:103B200008600CE044F27041C5F60201086820F01C
:103B300001000860086820F004000860FFE7FFE764
:103B4000FFE7FFE70A988068F8B1FFE7FDF7A0FEFE
:103B50000990FFE744F27040C5F60200006800F0EB
:103B600002010020B0EB510F0ED1FFE7FDF790FEF0
:103B70000999401A41F28931884204D3FFE70320B2
:103B80008DF82F0063E1E5E71EE0FDF781FE099067
:103B9000FFE744F27040C5F60200006800F0020141
:103BA0000020B0EB510F0ED0FFE7FDF771FE099931
:103BB000401A41F28931884204D3FFE703208DF88F
:103BC0002F0044E1E5E7FFE7FFE70A98406A002895
:103BD00000F03981FFE744F21040C5F602000068AA
:103BE00000F03800182800F0E080FFE70A98406AEB
:103BF000022840F0B480FFE744F20041C5F602011C
:103C0000086820F080700860FDF742FE0990FFE729
:103C100044F20040C5F60200006800F00071002088
:103C2000B0EB516F0CD0FFE7FDF732FE0999401A57
:103C3000032804D3FFE703208DF82F0007E1E7E70F
:103C4000FFE744F22841C5F60201086840F2F3326A
:103C500090430A9B9A6ADB6A42EA031210430860A7
:103C60000A99086BD1F834C08B6BCA6B01386FF3BB
:103C70005F204FF60061CFF6FF7101EB4C2189B256
:103C800008440021CFF6FF7101EB034101F4FE016E
:103C900008444FF07F4101EB026101F0FE4108440E
:103CA00044F23041C5F602010860FFE744F22C41BE
:103CB000C5F602010091086820F00100086044F296
:103CC0003442C5F6020210684FF6F87398430A9B17
:103CD0009B6C40EAC3001060086820F00C000A9A50
:103CE000126C10430860086820F002000A9A526CB7
:103CF00010430860086840F480300860086840F4A9
:103D000000300860086840F480200860086840F0CF
:103D10000100086044F20041C5F60201086840F065
:103D200080700860FDF7B4FD0990FFE744F20040A1
:103D3000C5F60200006800F000710020B0EB516F82
:103D40000CD1FFE7FDF7A4FD0999401A032804D31D
:103D5000FFE703208DF82F0079E0E7E724E044F245
:103D60000041C5F60201086820F080700860FDF788
:103D70008FFD0990FFE744F20040C5F6020000689D
:103D800000F000710020B0EB516F0CD0FFE7FDF7A1
:103D90007FFD0999401A032804D3FFE703208DF81B
:103DA0002F0054E0E7E7FFE74CE044F22840C5F677
:103DB00002000068089044F23040C5F60200006836
:103DC00007900A98406A012837D0FFE7089800F06A
:103DD00003000A99896A88422FD1FFE7089800F406
:103DE0007C710A98C06AB0EB111F26D1FFE70798D3
:103DF0006FF35F200A99096B013988421DD1FFE7F3
:103E0000BDF81C100A98406B0138B0EB512F14D14B
:103E1000FFE7079800F4FE010A98806B0138B0EBC9
:103E2000114F0AD1FFE7079800F0FE410A98C06BD6
:103E30000138B0EB116F04D0FFE701208DF82F009F
:103E400005E0FFE7FFE700208DF82F00FFE79DF872
:103E50002F000CB080BD000080B586B0049004989F
:103E600020B9FFE701208DF817001DE10498406A92
:103E700008B9FFE7FFE7049900208862049800680A
:103E800043F20001C4F2010188421BD0FFE704980D
:103E9000006843F60001C4F20001884212D0FFE737
:103EA0000498006843F60041C4F20001884209D03A
:103EB000FFE70498C068102804D3FFE701208DF8BD
:103EC0001700F1E0049800F047FF029004980068A2
:103ED00043F20001C4F20101884216D0FFE70498C2
:103EE000006843F60001C4F2000188420DD0FFE7EC
:103EF0000498006843F60041C4F20001884204D0EF
:103F0000FFE7029808281FD8FFE70498006843F2EB
:103F10000001C4F20101884212D0FFE70498006852
:103F200043F60001C4F20001884209D0FFE704987B
:103F3000006843F60041C4F20001884208D1FFE75F
:103F40000298112804D3FFE701208DF81700ABE099
:103F5000049890F8810040B9FFE70499002081F8A7
:103F60008000049800F0A4F8FFE70499022081F88B
:103F7000810004980168086820F001000860049836
:103F80000068806800F4F810039004988069B0F12C
:103F9000806F1BD1FFE704984068B0F5800F04D113
:103FA000FFE70498806B50B1FFE70498406868B958
:103FB000FFE70498806BB0F1805F07D1FFE70498BA
:103FC0000168086840F480500860FFE7049B1968A6
:103FD000DA68D869D3F828C040EA0C00DDF80CC0D4
:103FE00040EA0C00DB6B184310438860049A01928E
:103FF000506B516A0843916B0843916908431168FB
:10400000D2F804C09368D2F810E040EA0E00D2F86B
:1040100014E040EA0E00D2F820E040EA0E0040EA48
:104020000C00D2F84CC040EA0C001843936C1843C3
:10403000926D1043C8600498406898B9FFE70498EF
:1040400000688068012161F3CC20049909688860C8
:10405000049800688068022161F34A200499096885
:104060008860FFE704980168086D20F0010008658A
:1040700004988079400600280BD5FFE70498006873
:10408000C06820F00040049A1168526D1043C86067
:10409000FFE704990020C1F88400049A012182F806
:1040A00081108DF81700FFE79DF8170006B080BD5E
:1040B00080B588B00790002006900590049003908A
:1040C00002900798006843F20001C4F2010188429F
:1040D0002ED1FFE7FFE744F2F040C5F60200016889
:1040E00041F480510160006800F480500190019813
:1040F000FFE7FFE744F2E040C5F60200016841F047
:1041000001010160006800F0010000900098FFE7E5
:10411000E0200290022003900020049005900520EA
:1041200006900020C5F6020002A9FDF7ADF9FFE7F1
:1041300008B080BD0000000081B0009001B0704761
:1041400081B0009001B0704781B0009001B070471D
:1041500080B582B00090009820B9FFE701208DF86B
:10416000070045E0009890F83D0040B9FFE700994E
:10417000002081F83C00009800F03EF8FFE700992D
:10418000022081F83D00009951F8040B00F0A0FFD7
:104190000099012081F84800FFE70099012081F88B
:1041A0003E00009981F83F00009981F84000009995
:1041B00081F84100009981F84200009981F843009C
:1041C000FFE7FFE70099012081F84400009981F89A
:1041D0004500009981F84600009981F84700FFE703
:1041E0000099012081F83D0000208DF80700FFE7CD
:1041F0009DF8070002B080BD81B0009001B070470B
:1042000083B00190019890F83D00012804D0FFE7A9
:1042100001208DF80B0071E00199022081F83D002A
:1042200001980168C86840F00100C8600198006802
:104230000021C4F2010188423CD0FFE701980068E8
:10424000B0F1804F36D0FFE70198006840F200419E
:10425000C4F2000188422DD0FFE70198006840F6C3
:104260000001C4F20001884224D0FFE701980068F1
:1042700040F60041C4F2000188421BD0FFE70198DC
:10428000006840F20041C4F20101884212D0FFE709
:104290000198006841F60001C4F20001884209D08B
:1042A000FFE70198006844F20001C4F2010188426E
:1042B00019D1FFE70198006880680721C0F2010169
:1042C00008400090009806280CD0FFE70098B0F551
:1042D000803F07D0FFE701980168086840F00100BF
:1042E0000860FFE706E001980168086840F00100F7
:1042F0000860FFE700208DF80B00FFE79DF80B003A
:1043000003B070470000000081B0009001B070471A
:1043100080B582B0019001980068006900F0020148
:104320000020B0EB510F28D0FFE701980068C0686B
:1043300000F002010020B0EB510F1DD0FFE7019803
:1043400001686FF002000861019901200877019867
:1043500000688069800720B1FFE70198FFF7D4FF6C
:1043600006E0019800F030F9019800F031F9FFE71C
:10437000019900200877FFE7FFE7019800680069CE
:1043800000F004010020B0EB910F29D0FFE7019865
:104390000068C06800F004010020B0EB910F1ED04F
:1043A000FFE7019801686FF004000861019902209D
:1043B000087701980068806910F4407F04D0FFE717
:1043C0000198FFF7A1FF06E0019800F0FDF80198C1
:1043D00000F0FEF8FFE7019900200877FFE7FFE70C
:1043E00001980068006900F008010020B0EBD10FCF
:1043F00028D0FFE701980068C06800F0080100209D
:10440000B0EBD10F1DD0FFE7019801686FF00800F5
:10441000086101990420087701980068C069800745
:1044200020B1FFE70198FFF76FFF06E0019800F069
:10443000CBF8019800F0CCF8FFE70199002008774D
:10444000FFE7FFE701980068006900F01001002015
:10445000B0EB111F29D0FFE701980068C06800F099
:1044600010010020B0EB111F1ED0FFE7019801687A
:104470006FF0100008610199082008770198006822
:10448000C06910F4407F04D0FFE70198FFF73CFFBC
:1044900006E0019800F098F8019800F099F8FFE71D
:1044A000019900200877FFE7FFE70198006800699D
:1044B000C00780B1FFE701980068C068C00748B135
:1044C000FFE7019801686FF001000861019800F0B2
:1044D00083F8FFE7FFE7019800680069C1B2002098
:1044E000B0EBD11F13D0FFE701980068C068C1B2DC
:1044F0000020B0EBD11F09D0FFE7019801686FF0F1
:10450000800008610198FFF71BFEFFE7FFE70198B5
:104510000068006900F480710020B0EB112F13D007
:10452000FFE701980068C068C1B20020B0EBD11F5E
:1045300009D0FFE7019801686FF480700861019865
:10454000FFF7FAFDFFE7FFE701980068006900F058
:1045500040010020B0EB911F14D0FFE701980068E4
:10456000C06800F040010020B0EB911F09D0FFE7C8
:10457000019801686FF040000861019800F040F870
:10458000FFE7FFE701980068006900F020010020C4
:10459000B0EB511F14D0FFE701980068C06800F02D
:1045A00020010020B0EB511F09D0FFE701980168FE
:1045B0006FF0200008610198FFF7C6FDFFE7FFE7F5
:1045C00002B080BD0000000081B0009001B07047D3
:1045D00081B0009001B0704780B582B00190019821
:1045E000006844F60001C4F20101884203D1FFE7EC
:1045F000FDF756F9FFE702B080BD000000000000A3
:1046000081B0009001B07047FFE7FEE700000000B6
:1046100080B58CB040F2B400C2F2004002904AF281
:104620000001C4F200010160002203928260C260B6
:1046300001210174427482740A234361816107235A
:10464000C3610223036241628162C162016342630A
:104650008263C26320210164042141648264C164D5
:10466000026541658265C265102303664266816604
:10467000FCF7AEFC18B1FFE7FBF7A6FFFFE7002051
:10468000049005900221069101210791089009905C
:1046900040F2B400C2F2004004A9FCF78DFA18B150
:1046A000FFE7FBF791FFFFE740F2B400C2F20040E2
:1046B0000190FCF7C1FE019801210022FCF794F95A
:1046C0000CB080BD0000000080B582B044F6C95037
:1046D000C0F6000048F63C02C0F60002002101913D
:1046E00001F03AF9019940F29402C2F200421060DE
:1046F00045F28970C0F6000048F68402C0F6000258
:1047000001F02AF9019940F2B002C2F200421060B1
:1047100045F26940C0F6000048F66002C0F60002AB
:1047200001F01AF940F29801C2F20041086002B0AB
:1047300080BD00000000000080B590B000200F9008
:104740000E900D900C900B90FFE744F2E040C5F600
:104750000200016841F004010160006800F00400FB
:104760000A900A98FFE7FFE744F2E040C5F602002E
:10477000016841F080010160006800F0800009904C
:104780000998FFE7FFE744F2E040C5F60200016840
:1047900041F001010160006800F0010008900898F4
:1047A000FFE70020C5F602000290142101910022CB
:1047B0000592FDF74DF8059A40F60000C5F6020097
:1047C000069030210391FDF743F8019A029805996C
:1047D0000B92012204920C920D910E910BA907915C
:1047E000FCF752FEDDF80CC0049B059A0698079969
:1047F000CDF82CC00C930D920E92FCF745FE10B034
:1048000080BD00000000000080B582B040F254106E
:10481000C2F20040009043F20001C4F201010160C5
:104820004FF4800141600021019181600722C26044
:10483000016141614FF0806282614FF00052C261BC
:10484000016241628162C1624FF0804242638163D2
:10485000C163016441648164C1640165416581652E
:10486000FFF7FAFA18B1FFE7FBF7AEFEFFE702B079
:1048700080BD000000000000FFE7FEE70000000030
:10488000FFE7FEE70000000088B007900691059260
:10489000079800F0070004900498C0F1070005286D
:1048A00003D3FFE70420019004E00498C0F107005F
:1048B0000190FFE70198039004980430062803D87C
:1048C000FFE70020009003E0049803380090FFE722
:1048D0000098029006980399012202FA01F1013929
:1048E0000840029B984005999A40013A11400843BC
:1048F00008B0704700000000000000000000000049
:10490000EFF30980BFF36F8F154B1A681EF0100F7D
:1049100008BF20ED108A20E9F04F10602DE9090052
:104920004FF0500080F31188BFF34F8FBFF36F8FAC
:1049300002F0CEFC4FF0000080F31188BDE80900C2
:1049400019680868B0E8F04F1EF0100F08BFB0EC0F
:10495000108A80F30988BFF36F8F704700BF00BFD4
:104960001C0300240000000080B5B0B001A8009036
:10497000BC21FBF780FD00984FF41041019102210A
:104980000291102203920122049205910691C02106
:1049900007910021089109914FF4805118914FF02F
:1049A00000511C91FDF7CCF818B1FFE7FBF70CFEA6
:1049B000FFE730B080BD000080B586B00490039161
:1049C00000208DF8070044F22840C5F60200006878
:1049D00000F00300032804D1FFE701208DF8170041
:1049E000CBE044F20041C5F60201086820F0806087
:1049F0000860FCF74DFF0290FFE744F20040C5F667
:104A00000200006800F000610020B0EBD16F0CD014
:104A1000FFE7FCF73DFF0299401A032804D3FFE7A4
:104A200003208DF81700A8E0E7E7FFE744F22841EC
:104A3000C5F60201086820F47C30049A126840EA46
:104A40000230086004994868D1F808C0CB680A6948
:104A500001386FF35F204FF60061CFF6FF7101EB75
:104A60004C2189B208440021CFF6FF7101EB0341CC
:104A700001F4FE0108444FF07F4101EB026101F0B7
:104A8000FE41084444F23841C5F602010860FFE7E0
:104A900044F22C41C5F602010091086820F0C000E4
:104AA000049A526910430860086820F02000049AB4
:104AB000926910430860086820F01000086044F212
:104AC0003C42C5F6020210684FF6F8739843049B07
:104AD000DB6940EAC3001060086840F0100008601D
:104AE000039848B9FFE744F22C41C5F60201086873
:104AF00040F40020086016E00398012809D1FFE780
:104B000044F22C41C5F60201086840F480100860A8
:104B100008E044F22C41C5F60201086840F4001098
:104B20000860FFE7FFE744F20041C5F602010868AC
:104B300040F080600860FCF7ABFE0290FFE744F2B3
:104B40000040C5F60200006800F000610020B0EBF4
:104B5000D16F0CD1FFE7FCF79BFE0299401A0328A6
:104B600004D3FFE703208DF8170006E0E7E7FFE72F
:104B70009DF807008DF81700FFE79DF8170006B0B5
:104B800080BD00000000000080B586B00490039155
:104B900000208DF8070044F22840C5F602000068A6
:104BA00000F00300032804D1FFE701208DF817006F
:104BB000CBE044F20041C5F60201086820F08050C5
:104BC0000860FCF765FE0290FFE744F20040C5F67E
:104BD0000200006800F000510020B0EB517F0CD0C3
:104BE000FFE7FCF755FE0299401A032804D3FFE7BC
:104BF00003208DF81700A8E0E7E7FFE744F228411B
:104C0000C5F60201086820F07C70049A126840EA38
:104C10000250086004994868D1F808C0CB680A6956
:104C200001386FF35F204FF60061CFF6FF7101EBA3
:104C30004C2189B208440021CFF6FF7101EB0341FA
:104C400001F4FE0108444FF07F4101EB026101F0E5
:104C5000FE41084444F24041C5F602010860FFE706
:104C600044F22C41C5F602010091086820F440602E
:104C7000049A526910430860086820F40070049A8E
:104C8000926910430860086820F48070086044F25C
:104C90004442C5F6020210684FF6F8739843049B2D
:104CA000DB6940EAC3001060086840F48070086067
:104CB000039848B9FFE744F22C41C5F602010868A1
:104CC00040F48000086016E00398012809D1FFE74E
:104CD00044F22C41C5F60201086840F40000086067
:104CE00008E044F22C41C5F60201086840F08070EB
:104CF0000860FFE7FFE744F20041C5F602010868DB
:104D000040F080500860FCF7C3FD0290FFE744F2DA
:104D10000040C5F60200006800F000510020B0EB32
:104D2000517F0CD1FFE7FCF7B3FD0299401A03282D
:104D300004D3FFE703208DF8170006E0E7E7FFE75D
:104D40009DF807008DF81700FFE79DF8170006B0E3
:104D500080BD00000000000083B002900298C16B8B
:104D6000012000EB511001900298C06801300090C2
:104D700000980730C008009000980199484303B09C
:104D8000704700000000000000000000000000006C
:104D9000074B19680868B0E8F04F80F30988BFF343
:104DA0006F8F4FF0000080F31188704700BF00BF85
:104DB0001C0300240000000080B56FF004000021F7
:104DC00000F09EFA80BD000080B582B00190FFE740
:104DD000012000F055FDFBE780B54EF21000CEF249
:104DE0000000006803F05CF8012803D0FFE702F040
:104DF0007FFBFFE780BD000080B5A0B00DA84C216F
:104E0000FBF739FB002001900C900B900A90099061
:104E100008900790069005900220FCF73DFEFFE702
:104E20000020049040F22C40C5F60000016821F0FB
:104E300001010160006800F00100049044F61800D0
:104E4000C5F60200016841F440410160006800F4C9
:104E5000404004900498FFE7FFE744F61800C5F6C9
:104E60000200006800F40050B0F5005F01D0FFE7D9
:104E7000F3E7FFE744F2F440C5F60200016841F0B1
:104E800002010160006800F0020003900398FFE750
:104E9000FFE70020029044F61800C5F60200016802
:104EA00041F440410160006800F44040029040F24B
:104EB0002C40C5F60000016841F001010160006866
:104EC00000F0010002900298FFE7FFE744F61800A7
:104ED000C5F60200006800F40050B0F5005F01D094
:104EE000FFE7F3E744F22842C5F602021168022008
:104EF00060F30101116001210D914FF480310E9199
:104F00001690179005211891C02119911A901B90A5
:104F10001C9008201D9000201E901F900DA8FEF7E9
:104F200027FA18B1FFE7FBF74FFBFFE73F2005909B
:104F30000320069000200790082008904020099048
:104F40000A904FF480610B910C9005A80421FDF7A5
:104F5000B7FD18B1FFE7FBF737FBFFE720B080BDD7
:104F600081B04EF68851CEF20001086840F470001E
:104F7000086042F20000C5F20020006800F00F0057
:104F800006280AD8FFE742F20001C5F200210868AE
:104F9000072262F303000860FFE744F20041C5F610
:104FA0000201086840F00100086044F21042C5F6B2
:104FB00002020020106008684EF67F52CEF6F622FC
:104FC0001040086042F20000C5F20020006800F0C6
:104FD0000F0008280AD3FFE742F20001C5F20021C2
:104FE0000868072262F303000860FFE744F21841F3
:104FF000C5F6020100200090086044F21C41C5F68D
:105000000201086044F22041C5F60201086044F242
:105010002842C5F6020240F20021C0F202211160CE
:1050200044F22C42C5F602020021C0F2FF111160C9
:1050300044F23042C5F6020240F28021C0F2011172
:10504000116044F23442C5F60202106044F2384264
:10505000C5F60202116044F23C42C5F6020210603D
:1050600044F24042C5F60202116044F24441C5F6E2
:105070000201086044F20042C5F60202116821F400
:105080008021116044F26041C5F60201086041F2DE
:105090000001C5F600410968B0EB517F07D1FFE779
:1050A00048F20811C5F2001101200860FFE744F240
:1050B0000001C5F2002143F2D200086001B0704740
:1050C00080B540F2DC10C2F20040FFF721F980BD4C
:1050D00083B002900191029800680090029800212C
:1050E000C4F20101884225D0FFE70298B0F1804F59
:1050F00020D0FFE7029840F20041C4F2000188424C
:1051000018D0FFE7029840F60001C4F2000188427F
:1051100010D0FFE7029840F60041C4F20001884237
:1051200008D0FFE7029840F20041C4F20101884232
:105130000AD1FFE7009820F07000009001984168C4
:10514000009808430090FFE702980021C4F2010193
:1051500088423DD0FFE70298B0F1804F38D0FFE79A
:10516000029840F20041C4F20001884230D0FFE7CB
:10517000029840F60001C4F20001884228D0FFE7FF
:10518000029840F60041C4F20001884220D0FFE7B7
:10519000029840F20041C4F20101884218D0FFE7B2
:1051A000029844F20001C4F20101884210D0FFE7E6
:1051B000029844F20041C4F20101884208D0FFE79E
:1051C000029844F60001C4F2010188420AD1FFE7C7
:1051D000009820F4407000900198C168009808433E
:1051E0000090FFE7009820F080000199496908438A
:1051F0000090009802990860019880680299C8623E
:10520000019800680299886202980021C4F20101A5
:10521000884220D0FFE7029840F20041C4F2010129
:10522000884218D0FFE7029844F20001C4F201015D
:10523000884210D0FFE7029844F20041C4F2010115
:10524000884208D0FFE7029844F60001C4F2010149
:10525000884205D1FFE70198006902990863FFE7DA
:1052600002990120486103B070470000000000006F
:10527000FFE7FEE70000000081B0ADF80200BDF9D5
:10528000020000280ED4FFE7BDF9021001F01F0252
:10529000012090404A094EF20011CEF2000141F87F
:1052A0002200FFE701B070474EF60C50CEF200002E
:1052B0000068C0F30220704782B0ADF8060000918C
:1052C000BDF9060000280AD4FFE700980001BDF9E7
:1052D00006104EF20042CEF2000288540BE0009815
:1052E0000001BDF8061001F00F014EF61452CEF287
:1052F00000028854FFE702B0704700000000000081
:1053000082B0ADF806000091BDF9060000280AD46D
:10531000FFE700980001BDF906104EF20042CEF200
:10532000000288540BE000980001BDF8061001F05F
:105330000F014EF61452CEF200028854FFE702B07D
:10534000704700000000000083B00290029800F057
:10535000070000904EF60C51CEF200010868019053
:1053600001984FF6FF02104001900198009A40EA20
:1053700002200022C0F2FA52104301900198086006
:1053800003B070470000000087B08DED050AADF84E
:105390001200039102920020019000909DED050AF9
:1053A000B5EE400AF1EE10FA0ADBFFE79DED050AC3
:1053B000B7EE001AB4EE410AF1EE10FA04DDFFE791
:1053C00000208DF81B004BE0BDF8120040F68C2148
:1053D000884207DBFFE7BDF8120041F665118842FD
:1053E00004DBFFE700208DF81B0039E0BDF8120058
:1053F000A0F68C2048F21F51C5F2EB1150FB01F2D0
:10540000101100EBD27248F2D450C0F6000050F8F0
:1054100022000190BDF81200A0F68C2050FB01F193
:10542000081100EBD17148F20870C0F6000050F886
:10543000210000909DED010A9DED051A20EE010A64
:10544000039880ED000A9DED000A9DED051A20EEFF
:10545000010A029880ED000A01208DF81B00FFE789
:105460009DF81B0007B0704780B58AB007A902916C
:105470000990FFE700200190089007908DF81B002D
:10548000ADF81800ADF81600ADF81400ADF8120034
:10549000ADF81000ADF80E0040F28C00C2F20040F2
:1054A00090ED000A40F20800C2F20040008808A90E
:1054B00007AAFFF769FF029890ED010A9FED832A82
:1054C00020EE020AB7EEC00AB6EE001B30EE010B6A
:1054D000BCEEC00B10EE101AADF8181090ED010ADA
:1054E00020EE020AB7EEC00A30EE010BBCEEC00B94
:1054F00010EE101AADF8161090ED000A20EE020A18
:10550000B7EEC00A30EE010BBCEEC00B10EE101A65
:10551000ADF8141090ED000A20EE020AB7EEC00AB2
:1055200030EE010BBCEEC00B10EE100AADF812000D
:10553000BDF81800B0F57A7F05DDFFE74FF47A700B
:10554000ADF818000AE0BDF81800B0F1FF3F04DC28
:10555000FFE70020ADF81800FFE7FFE7BDF81600F1
:10556000B0F57A7F05DDFFE74FF47A70ADF81600ED
:105570000AE0BDF81600B0F1FF3F04DCFFE70020B1
:10558000ADF81600FFE7FFE7BDF81400B0F57A7F2D
:1055900005DDFFE74FF47A70ADF814000AE0BDF8BE
:1055A0001400B0F1FF3F04DCFFE70020ADF8140069
:1055B000FFE7FFE7BDF81200B0F57A7F05DDFFE7F2
:1055C0004FF47A70ADF812000AE0BDF81200B0F1A5
:1055D000FF3F04DCFFE70020ADF81200FFE7FFE724
:1055E000BDF81800BDF816100844BDF814100844A2
:1055F000BDF812100844ADF81000BDF81000B0F569
:10560000FA6F0ADDFFE70020ADF81200ADF81400D4
:10561000ADF81600ADF81800FFE7BDF810004FF424
:105620001661484344F6D351C1F26201A0FB011058
:10563000000AADF80E0040F29F00C2F20040009058
:10564000AA2101709DF819104170BDF818108170E1
:105650009DF81710C170BDF81610017140F20A01D3
:10566000C2F20041097841710021052200F030F8B2
:10567000014600988DF81B109DF81B108171FE21CA
:10568000C171BB2101729DF815104172BDF8141053
:1056900081729DF81310C172BDF81210017340F2AF
:1056A0000B01C2F200410978417308210D2200F07C
:1056B0000FF800998DF81B009DF81B008873FF20E0
:1056C000C873012000F0DCF8D4E600BF00007A4483
:1056D00084B00390ADF80A10ADF8082000208DF8D2
:1056E00007008DF80600ADF804008DF80300BDF842
:1056F0000A00ADF80000BDF80800BDF80A10401A15
:105700000130ADF80400BDF80A00ADF80000FFE775
:10571000BDF80000BDF80A10BDF80420114488420D
:105720002ADAFFE70398BDF80010405C8DF803000B
:1057300008208DF80600FFE79DF80600012814DB1D
:10574000FFE79DF8030000F001019DF80700084401
:105750008DF807009DF8030040088DF803009DF8C0
:10576000060001388DF80600E6E7FFE7BDF8000007
:105770000130ADF80000CBE79DF8070000F0010014
:1057800004B070470000000080B582B00190FFE7D0
:1057900040F27800C2F2004040F29001C2F20041B3
:1057A000FAF7D2FE0020ADF80200FFE7BDF80200D4
:1057B000012849DCFFE70020ADF80000FFE7BDF855
:1057C000000007282ADCFFE7BDF8020078B9FFE7F0
:1057D000BDF8001040F29F00C2F20040405CBDF8EE
:1057E000002040F28001C2F2004188540FE0BDF871
:1057F000000040F29F01C2F200410844007ABDF867
:10580000002040F28001C2F200418854FFE7FFE728
:10581000BDF800000130ADF80000D0E748F2B0500C
:10582000C0F60000B0F9001040F28000C2F2004063
:10583000FAF7BAFE0A2000F023F8FFE7BDF80200ED
:105840000130ADF80200B1E7012000F019F89FE740
:1058500080B582B000200190FCF732F8FFF7CCFA57
:10586000FFF782F8FEF768FFFEF7CEFFFEF7D0FEE7
:1058700000F022F8FEF728FF00F042F8FFE7FEE70D
:1058800080B584B00290EFF305800390039820B1B7
:10589000FFE76FF00500019009E0002001900298F9
:1058A00020B1FFE7029801F0F7FBFFE7FFE701985F
:1058B00004B080BD0000000082B0EFF305800190CD
:1058C000019820B1FFE76FF00500009014E040F26E
:1058D0008800C2F20040006848B9FFE740F2880142
:1058E000C2F20041012008600020009003E04FF068
:1058F000FF300090FFE7FFE7009802B0704700001C
:1059000080B582B0EFF305800190019820B1FFE7E8
:105910006FF00500009019E040F28800C2F20040EC
:10592000006801280DD1FFE7FFF746FA40F2880131
:10593000C2F200410220086001F052FC00200090F9
:1059400003E04FF0FF300090FFE7FFE7009802B060
:1059500080BD000000000000B0B58EB00B900A9131
:10596000099200200690EFF305800D900D98002815
:1059700040F09980FFE70B98002800F09480FFE743
:105980008020079018200590002008904FF0FF30ED
:105990000490099800284DD0FFE70998006820B1CD
:1059A000FFE7099800680890FFE70998806920B12F
:1059B000FFE7099880690590FFE7059848B1FFE780
:1059C0000598382805D8FFE709980079C00718B16D
:1059D000FFE700200C9069E00998406928B1FFE7D3
:1059E0000998406980080790FFE70998806880B1AE
:1059F000FFE70998C0685C280BD3FFE709980069A6
:105A000038B1FFE70998406918B1FFE70120049019
:105A10000FE00998806858B9FFE70998C06838B95D
:105A2000FFE70998006918B9FFE700200490FFE735
:105A3000FFE702E000200490FFE70498012817D157
:105A4000FFE70B980899079A0A9BDDF814C0DDF868
:105A500024E0DEF80850DEF81040EE46CEF808509C
:105A6000CEF80440CEF800C002F0B2F9069019E07A
:105A70000498B0B9FFE70B980899BDF81C200A9B61
:105A8000DDF814C0EE4606ACCEF80440CEF800C0F7
:105A900002F04EF9012803D0FFE700200690FFE74F
:105AA000FFE7FFE7FFE706980C90FFE70C980EB0C2
:105AB000B0BD00000000000080B584B003900291EA
:105AC00044F66830C2F200400068009040F21C309A
:105AD000C2F200400068043001F082F808B9FFE724
